:100000000C942A000C9447000C9447000C94470071
:100010000C9447000C9447000C9447000C94470044
:100020000C9447000C9447000C9447000C94470034
:100030000C9447000C9447000C9447000C94470024
:100040000C9447000C9447000C9447000C94470014
:100050000C94470011241FBECFE5D8E0DEBFCDBF12
:1000600010E0A0E6B0E0E4E5F4E002C005900D92F7
:10007000A03EB107D9F710E0A0EEB0E001C01D929C
:10008000A13EB107E1F70E940B020C9428020C94E8
:100090000000C49A81E58DB98EB18FB10895C498DE
:1000A0008FB9779BFECFC49A0895C4988FB9779B78
:1000B000FECF0895C49A80EA9FE00197F1F7C498B3
:1000C000089580E090E0C4981FB8779BFECF01961A
:1000D00088309105C1F7089590BD89B988E18AB942
:1000E00086E880BD08955D9BFECF8CB908955F9B27
:1000F000FECF8CB10895CF92DF92EF92FF920F93D3
:100100001F93DF93CF93CDB7DEB7C05CD0400FB65F
:10011000F894DEBF0FBECDBFDE01AF5BBF4FE0EA9C
:10012000F0E090E401900D929150E1F7DE01AF57BD
:10013000BF4FE0E6F0E090E401900D929150E1F7BE
:10014000813309F07BC0FE01319680E4DF011D920E
:100150008A95E9F781E08C838C878C8B8C8F8CA3BC
:100160008CA78EA78CAB8DAB8CAF00E010E031E09C
:10017000C32ED12C7F01E0EAFFE055C08C918111A4
:100180009C932F5F3F4F119628303105B9F74F5F91
:100190005F4F4830510519F460E070E03BC0DA0170
:1001A00023E0AA0FBB1F2A95E1F7AE0DBF1D20E08B
:1001B00030E0E4CF8C91C4988FB9779BFECF2F5F4E
:1001C0003F4F119628303105A9F7C49ACF01019706
:1001D000F1F7C498C601042E02C0880F991F0A9433
:1001E000E2F785BBCF010197F1F74F5F5F4F4830D2
:1001F000510559F0DA0183E0AA0FBB1F8A95E1F798
:10020000AE0DBF1D20E030E0D5CF6F5F7F4F673070
:10021000710519F040E050E0EDCF0F5F1F4F08303F
:10022000110509F4E8C0C601002E02C0880F991F0D
:100230000A94E2F7982F40E050E0B1CF823309F002
:100240006CC0A0E0B0E041E0C42ED12C31E4E32E3C
:10025000F12CEC0EFD1E00EA1FE054C080818111DC
:1002600090832F5F3F4F319628303105B9F74F5FAC
:100270005F4F4830510519F460E070E03BC0FA016F
:1002800023E0EE0FFF1F2A95E1F7EE0DFF1D20E0A2
:1002900030E0E4CF8081C4988FB9779BFECF2F5F89
:1002A0003F4F319628303105A9F7C49AC80101970C
:1002B000F1F7C498C601042E02C0880F991F0A9452
:1002C000E2F785BBC8010197F1F74F5F5F4F4830F8
:1002D000510559F0FA0183E0EE0FFF1F8A95E1F70F
:1002E000EE0DFF1D20E030E0D5CF6F5F7F4F673010
:1002F000710519F040E050E0EDCF1196A830B1053E
:1003000009F479C0C6010A2E02C0880F991F0A9409
:10031000E2F7982F40E050E0B2CF833309F06BC092
:10032000A0E0B0E041E0C42ED12C31E8E32EF12C66
:10033000EC0EFD1E00EA1FE053C080818111908306
:100340002F5F3F4F319628303105B9F74F5F5F4F30
:100350004830510519F460E070E03BC0FA0123E039
:10036000EE0FFF1F2A95E1F7EE0DFF1D20E030E0B4
:10037000E4CF8081C4988FB9779BFECF2F5F3F4F2A
:10038000319628303105A9F7C49AC8010197F1F7D1
:10039000C498C601042E02C0880F991F0A94E2F780
:1003A00085BBC8010197F1F74F5F5F4F483051059A
:1003B00059F0FA0183E0EE0FFF1F8A95E1F7EE0D89
:1003C000FF1D20E030E0D5CF6F5F7F4F67307105B4
:1003D00019F040E050E0EDCF1196A830B10559F08A
:1003E000C6010A2E02C0880F991F0A94E2F7982FBF
:1003F00040E050E0B3CFC054DF4F0FB6F894DEBFFB
:100400000FBECDBFCF91DF911F910F91FF90EF9065
:10041000DF90CF9008959FEF94BB8FEB87BB91BB8C
:1004200015BA12BA10BC87E689B988E18AB986E89C
:1004300080BDC49A81E58DB98EB18FB11FB85F9B25
:10044000FECF8CB15D9BFECF8CB90E947B00F7CFB5
:04045000F894FFCF4E
:100454000000000000000000000001010101000094
:10046400000100000000C0000001000000000000C6
:100474000000010101010000000100000000000073
:100484000001000000000100000001010101000062
:100494000001010101010100000000000001000051
:1004A4000000000001000000000000010000000046
:1004B4000000010000000000000100000000010035
:1004C4000001000000000100000001010101000022
:00000001FF
