:100000000C942A000C9447000C9447000C94470071
:100010000C9447000C9447000C9447000C94470044
:100020000C9447000C9447000C9447000C94470034
:100030000C9447000C9447000C9447000C94470024
:100040000C9447000C9447000C9447000C94470014
:100050000C94470011241FBECFE5D8E0DEBFCDBF12
:1000600012E0A0E6B0E0E6E4FBE002C005900D92ED
:10007000A036B107D9F712E0A0E6B2E001C01D92A8
:10008000A136B107E1F70E9484050C94A1050C94F8
:100090000000C49A81E58DB98EB18FB10895C498DE
:1000A0008FB9779BFECFC49A0895C4988FB9779B78
:1000B000FECF0895C49A80EA9FE00197F1F7C498B3
:1000C000089580E090E0C4981FB8779BFECF01961A
:1000D00088309105C1F7089590BD89B988E18AB942
:1000E00086E880BD08955D9BFECF8CB908955F9B27
:1000F000FECF8CB10895CF92DF92EF92FF920F93D3
:100100001F93DF93CF93CDB7DEB7C058D2400FB661
:10011000F894DEBF0FBECDBFDE011196E0E2F2E043
:1001200090E401900D929150E1F7DE01AF57BF4F7F
:10013000E0EEF1E090E401900D929150E1F7DE01E4
:10014000AF53BF4FE0EAF1E090E401900D9291507F
:10015000E1F7DE01AF5FBE4FE0E6F1E090E4019031
:100160000D929150E1F7DE01AF5BBE4FE0E2F1E0AE
:1001700090E401900D929150E1F7DE01AF57BE4F30
:10018000E0EEF0E090E401900D929150E1F7DE0195
:10019000AF5FBD4FE0EAF0E090E401900D92915026
:1001A000E1F7DE01AF5BBD4FE0E6F0E090E40190E7
:1001B0000D929150E1F7803309F06BC0A0E0B0E000
:1001C00031E0C32ED12C7E010894E11CF11C00EA21
:1001D0001FE054C08081811190832F5F3F4F319683
:1001E00028303105B9F74F5F5F4F4830510519F49A
:1001F00060E070E03BC0FA0123E0EE0FFF1F2A959C
:10020000E1F7EE0DFF1D20E030E0E4CF8081C498DF
:100210008FB9779BFECF2F5F3F4F31962830310546
:10022000A9F7C49AC8010197F1F7C498C601042E32
:1002300002C0880F991F0A94E2F785BBC801019795
:10024000F1F74F5F5F4F4830510559F0FA0183E0F5
:10025000EE0FFF1F8A95E1F7EE0DFF1D20E030E065
:10026000D5CF6F5F7F4F6730710519F040E050E0E8
:10027000EDCF1196A830B10509F436C4C6010A2E97
:1002800002C0880F991F0A94E2F7982F40E050E0CF
:10029000B2CF813309F09AC0DE01AF5BBF4F80E47B
:1002A000FD0111928A95E9F781E0FE01EC5BFF4FB9
:1002B0008083FE01E45BFF4F8083FE01EC5AFF4F19
:1002C0008083FE01E45AFF4F8083FE01EC59FF4F0B
:1002D0008083FE01E459FF4F8083FE01E259FF4F06
:1002E0008083FE01EC58FF4F8083FE01EB58FF4FE7
:1002F0008083FE01E458FF4F808300E010E031E08E
:10030000C32ED12C7D01A0EABFE055C080818111B0
:1003100090832F5F3F4F319628303105B9F74F5FFB
:100320005F4F4830510519F460E070E03BC0FA01BE
:1003300023E0EE0FFF1F2A95E1F7EE0DFF1D20E0F1
:1003400030E0E4CF8081C4988FB9779BFECF2F5FD8
:100350003F4F319628303105A9F7C49ACD01019756
:10036000F1F7C498C601042E02C0880F991F0A94A1
:10037000E2F785BBCD010197F1F74F5F5F4F483042
:10038000510559F0FA0183E0EE0FFF1F8A95E1F75E
:10039000EE0DFF1D20E030E0D5CF6F5F7F4F67305F
:1003A000710519F040E050E0EDCF0F5F1F4F0830AE
:1003B000110509F499C3C601002E02C0880F991FC8
:1003C0000A94E2F7982F40E050E0B1CF823309F071
:1003D0006CC0A0E0B0E041E0C42ED12C31E8E32EA7
:1003E000F12CEC0EFD1E00EA1FE054C0808181114B
:1003F00090832F5F3F4F319628303105B9F74F5F1B
:100400005F4F4830510519F460E070E03BC0FA01DD
:1004100023E0EE0FFF1F2A95E1F7EE0DFF1D20E010
:1004200030E0E4CF8081C4988FB9779BFECF2F5FF7
:100430003F4F319628303105A9F7C49AC80101977A
:10044000F1F7C498C601042E02C0880F991F0A94C0
:10045000E2F785BBC8010197F1F74F5F5F4F483066
:10046000510559F0FA0183E0EE0FFF1F8A95E1F77D
:10047000EE0DFF1D20E030E0D5CF6F5F7F4F67307E
:10048000710519F040E050E0EDCF1196A830B105AC
:1004900009F42AC3C6010A2E02C0880F991F0A94C4
:1004A000E2F7982F40E050E0B2CF833309F06CC000
:1004B000A0E0B0E041E0C42ED12C31ECE32EF12CD1
:1004C000EC0EFD1E00EA1FE054C080818111908374
:1004D0002F5F3F4F319628303105B9F74F5F5F4F9F
:1004E0004830510519F460E070E03BC0FA0123E0A8
:1004F000EE0FFF1F2A95E1F7EE0DFF1D20E030E023
:10050000E4CF8081C4988FB9779BFECF2F5F3F4F98
:10051000319628303105A9F7C49AC8010197F1F73F
:10052000C498C601042E02C0880F991F0A94E2F7EE
:1005300085BBC8010197F1F74F5F5F4F4830510508
:1005400059F0FA0183E0EE0FFF1F8A95E1F7EE0DF7
:10055000FF1D20E030E0D5CF6F5F7F4F6730710522
:1005600019F040E050E0EDCF1196A830B10509F444
:10057000BBC2C6010A2E02C0880F991F0A94E2F777
:10058000982F40E050E0B2CF843309F06CC0A0E077
:10059000B0E041E0C42ED12C31E0E32EF32EEC0E7E
:1005A000FD1E00EA1FE054C08081811190832F5FFF
:1005B0003F4F319628303105B9F74F5F5F4F4830D4
:1005C000510519F460E070E03BC0FA0123E0EE0F42
:1005D000FF1F2A95E1F7EE0DFF1D20E030E0E4CF8C
:1005E0008081C4988FB9779BFECF2F5F3F4F3196A4
:1005F00028303105A9F7C49AC8010197F1F7C498CA
:10060000C601042E02C0880F991F0A94E2F785BB29
:10061000C8010197F1F74F5F5F4F4830510559F01E
:10062000FA0183E0EE0FFF1F8A95E1F7EE0DFF1D43
:1006300020E030E0D5CF6F5F7F4F6730710519F054
:1006400040E050E0EDCF1196A830B10509F44CC25E
:10065000C6010A2E02C0880F991F0A94E2F7982F4C
:1006600040E050E0B2CF853309F06DC0A0E0B0E0CB
:1006700041E0C42ED12C31E4E32E31E0F32EEC0E18
:10068000FD1E00EA1FE054C08081811190832F5F1E
:100690003F4F319628303105B9F74F5F5F4F4830F3
:1006A000510519F460E070E03BC0FA0123E0EE0F61
:1006B000FF1F2A95E1F7EE0DFF1D20E030E0E4CFAB
:1006C0008081C4988FB9779BFECF2F5F3F4F3196C3
:1006D00028303105A9F7C49AC8010197F1F7C498E9
:1006E000C601042E02C0880F991F0A94E2F785BB49
:1006F000C8010197F1F74F5F5F4F4830510559F03E
:10070000FA0183E0EE0FFF1F8A95E1F7EE0DFF1D62
:1007100020E030E0D5CF6F5F7F4F6730710519F073
:1007200040E050E0EDCF1196A830B10509F4DCC1EE
:10073000C6010A2E02C0880F991F0A94E2F7982F6B
:1007400040E050E0B2CF863309F06DC0A0E0B0E0E9
:1007500041E0C42ED12C31E8E32E31E0F32EEC0E33
:10076000FD1E00EA1FE054C08081811190832F5F3D
:100770003F4F319628303105B9F74F5F5F4F483012
:10078000510519F460E070E03BC0FA0123E0EE0F80
:10079000FF1F2A95E1F7EE0DFF1D20E030E0E4CFCA
:1007A0008081C4988FB9779BFECF2F5F3F4F3196E2
:1007B00028303105A9F7C49AC8010197F1F7C49808
:1007C000C601042E02C0880F991F0A94E2F785BB68
:1007D000C8010197F1F74F5F5F4F4830510559F05D
:1007E000FA0183E0EE0FFF1F8A95E1F7EE0DFF1D82
:1007F00020E030E0D5CF6F5F7F4F6730710519F093
:1008000040E050E0EDCF1196A830B10509F46CC17D
:10081000C6010A2E02C0880F991F0A94E2F7982F8A
:1008200040E050E0B2CF873309F07FC0FE01EF53C4
:10083000FE4F80E4DF011D928A95E9F781E086830F
:100840008587848B838F82A381A781AB81AF82AFA1
:1008500083AF84AF85AF86AF00E010E031E0C32EF8
:10086000D12C7F01E0EAFFE055C08C9181119C936F
:100870002F5F3F4F119628303105B9F74F5F5F4F1B
:100880004830510519F460E070E03BC0DA0123E024
:10089000AA0FBB1F2A95E1F7AE0DBF1D20E030E087
:1008A000E4CF8C91C4988FB9779BFECF2F5F3F4FD9
:1008B000119628303105A9F7C49ACF010197F1F7B5
:1008C000C498C601042E02C0880F991F0A94E2F74B
:1008D00085BBCF010197F1F74F5F5F4F483051055E
:1008E00059F0DA0183E0AA0FBB1F8A95E1F7AE0D3C
:1008F000BF1D20E030E0D5CF6F5F7F4F67307105BF
:1009000019F040E050E0EDCF0F5F1F4F08301105A8
:1009100009F4EAC0C601002E02C0880F991F0A948C
:10092000E2F7982F40E050E0B1CF883309F06DC076
:10093000A0E0B0E041E0C42ED12C31E0E32E32E063
:10094000F32EEC0EFD1E00EA1FE054C080818111E1
:1009500090832F5F3F4F319628303105B9F74F5FB5
:100960005F4F4830510519F460E070E03BC0FA0178
:1009700023E0EE0FFF1F2A95E1F7EE0DFF1D20E0AB
:1009800030E0E4CF8081C4988FB9779BFECF2F5F92
:100990003F4F319628303105A9F7C49AC801019715
:1009A000F1F7C498C601042E02C0880F991F0A945B
:1009B000E2F785BBC8010197F1F74F5F5F4F483001
:1009C000510559F0FA0183E0EE0FFF1F8A95E1F718
:1009D000EE0DFF1D20E030E0D5CF6F5F7F4F673019
:1009E000710519F040E050E0EDCF1196A830B10547
:1009F00009F47AC0C6010A2E02C0880F991F0A9412
:100A0000E2F7982F40E050E0B2CF893309F06CC094
:100A1000A0E0B0E041E0C42ED12C31E4E32E32E07E
:100A2000F32EEC0EFD1E00EA1FE053C08081811101
:100A300090832F5F3F4F319628303105B9F74F5FD4
:100A40005F4F4830510519F460E070E03BC0FA0197
:100A500023E0EE0FFF1F2A95E1F7EE0DFF1D20E0CA
:100A600030E0E4CF8081C4988FB9779BFECF2F5FB1
:100A70003F4F319628303105A9F7C49AC801019734
:100A8000F1F7C498C601042E02C0880F991F0A947A
:100A9000E2F785BBC8010197F1F74F5F5F4F483020
:100AA000510559F0FA0183E0EE0FFF1F8A95E1F737
:100AB000EE0DFF1D20E030E0D5CF6F5F7F4F673038
:100AC000710519F040E050E0EDCF1196A830B10566
:100AD00059F0C6010A2E02C0880F991F0A94E2F746
:100AE000982F40E050E0B3CFC058DD4F0FB6F894D8
:100AF000DEBF0FBECDBFCF91DF911F910F91FF9051
:100B0000EF90DF90CF9008959FEF94BB8FEB87BB62
:100B100091BB15BA12BA10BC87E689B988E18AB9C7
:100B200086E880BDC49A81E58DB98EB18FB11FB8BA
:100B30005F9BFECF8CB15D9BFECF8CB90E947B008A
:060B4000F7CFF894FFCF8F
:100B46000001010101010100000100000000000098
:100B56000001000000000000000101010101010088
:100B6600000100000000010000010000000001007B
:100B76000001000000000100000101010101010067
:100B8600000000000000000000000101010100005B
:100B9600000100000000010000010000000001004B
:100BA6000000010101010000000100000000010039
:100BB6000001000000000100000001010101000029
:100BC6000000010101010000000100000000010019
:100BD600000100000000010000010000000001000B
:100BE60000000101010101000000000000000100F9
:100BF60000000000000100000000010101000000EB
:100C060000000101010101000001000000000000D8
:100C160000010000000000000001000000000000CC
:100C260000000101010101000000000000000100B8
:100C360000000000000001000001010101010100A7
:100C4600000000010000000000000001000000009C
:100C56000000000100000000000101010101010087
:100C6600000000010000010000000001000100007A
:100C7600000000010100000000000001000000006B
:100C8600000000000000000000000101010100005A
:100C9600000100000000C00000010000000000008C
:100CA6000000010101010000000100000000000039
:100CB6000001000000000100000001010101000028
:100CC6000001010101010100000000000001000017
:100CD600000000000100000000000001000000000C
:100CE60000000100000000000001000000000100FB
:100CF60000010000000001000000010101010000E8
:100D060000000101010100000001000000000100D7
:100D16000001000000C0010000010000C000010049
:100D2600000100C0000001000001C0000000010039
:100D360000010000000001000000010101010000A7
:00000001FF
